{
  "_format": "hh-sol-artifact-1",
  "contractName": "NodiusRelay",
  "sourceName": "contracts/NodiusRelay.sol",
  "abi": [
    {
      "inputs": [],
      "stateMutability": "nonpayable",
      "type": "constructor"
    },
    {
      "anonymous": false,
      "inputs": [
        {
          "indexed": true,
          "internalType": "address",
          "name": "previousOwner",
          "type": "address"
        },
        {
          "indexed": true,
          "internalType": "address",
          "name": "newOwner",
          "type": "address"
        }
      ],
      "name": "OwnershipTransferred",
      "type": "event"
    },
    {
      "anonymous": false,
      "inputs": [
        {
          "indexed": true,
          "internalType": "address",
          "name": "user",
          "type": "address"
        },
        {
          "indexed": true,
          "internalType": "address",
          "name": "target",
          "type": "address"
        },
        {
          "indexed": false,
          "internalType": "uint256",
          "name": "value",
          "type": "uint256"
        }
      ],
      "name": "RelayExecuted",
      "type": "event"
    },
    {
      "inputs": [],
      "name": "DOMAIN_SEPARATOR",
      "outputs": [
        {
          "internalType": "bytes32",
          "name": "",
          "type": "bytes32"
        }
      ],
      "stateMutability": "view",
      "type": "function"
    },
    {
      "inputs": [],
      "name": "EXECUTE_TYPEHASH",
      "outputs": [
        {
          "internalType": "bytes32",
          "name": "",
          "type": "bytes32"
        }
      ],
      "stateMutability": "view",
      "type": "function"
    },
    {
      "inputs": [
        {
          "internalType": "address",
          "name": "target",
          "type": "address"
        },
        {
          "internalType": "uint256",
          "name": "value",
          "type": "uint256"
        },
        {
          "internalType": "bytes",
          "name": "data",
          "type": "bytes"
        },
        {
          "internalType": "uint256",
          "name": "nonce",
          "type": "uint256"
        },
        {
          "internalType": "uint256",
          "name": "deadline",
          "type": "uint256"
        },
        {
          "internalType": "bytes",
          "name": "signature",
          "type": "bytes"
        }
      ],
      "name": "execute",
      "outputs": [
        {
          "internalType": "bytes",
          "name": "",
          "type": "bytes"
        }
      ],
      "stateMutability": "nonpayable",
      "type": "function"
    },
    {
      "inputs": [
        {
          "internalType": "address",
          "name": "",
          "type": "address"
        }
      ],
      "name": "nonces",
      "outputs": [
        {
          "internalType": "uint256",
          "name": "",
          "type": "uint256"
        }
      ],
      "stateMutability": "view",
      "type": "function"
    },
    {
      "inputs": [],
      "name": "owner",
      "outputs": [
        {
          "internalType": "address",
          "name": "",
          "type": "address"
        }
      ],
      "stateMutability": "view",
      "type": "function"
    },
    {
      "inputs": [
        {
          "internalType": "address",
          "name": "newOwner",
          "type": "address"
        }
      ],
      "name": "transferOwnership",
      "outputs": [],
      "stateMutability": "nonpayable",
      "type": "function"
    },
    {
      "stateMutability": "payable",
      "type": "receive"
    }
  ],
  "bytecode": "0x60a060405234801561001057600080fd5b50600080546001600160a01b03191633179055604080517f8b73c3c69bb8fe3d512ecc4cf759cc79239f7b179b0ffacaa9a75d522b39400f60208201527f107d56ef284cbbccbcabaa78f00f86f882e3a8ca75ab280e151b232828eaa98e918101919091527fc89efdaa54c0f20c7adf612882df0950f5a951637e0307cdcb4c672f298b8bc660608201524660808201523060a082015260c00160408051601f1981840301815291905280516020909101206080526080516108796100e6600039600081816077015261028301526108796000f3fe6080604052600436106100595760003560e01c80633644e5151461006557806360d2f33d146100ac578063705d7aa9146100e05780637ecebe001461010d5780638da5cb5b1461013a578063f2fde38b1461017257600080fd5b3661006057005b600080fd5b34801561007157600080fd5b506100997f000000000000000000000000000000000000000000000000000000000000000081565b6040519081526020015b60405180910390f35b3480156100b857600080fd5b506100997f373403465f0dba3d779437abd481391ad78b37bc6be16412d0730fd7728033af81565b3480156100ec57600080fd5b506101006100fb3660046106d3565b610194565b6040516100a39190610775565b34801561011957600080fd5b506100996101283660046107c3565b60016020526000908152604090205481565b34801561014657600080fd5b5060005461015a906001600160a01b031681565b6040516001600160a01b0390911681526020016100a3565b34801561017e57600080fd5b5061019261018d3660046107c3565b6104d1565b005b6060834211156101e25760405162461bcd60e51b8152602060048201526014602482015273139bd91a5d5cd4995b185e4e88195e1c1a5c995960621b60448201526064015b60405180910390fd5b60007f373403465f0dba3d779437abd481391ad78b37bc6be16412d0730fd7728033af8a8a8a8a6040516102179291906107e5565b60405190819003812061025f949392918b908b906020019586526001600160a01b0394909416602086015260408501929092526060840152608083015260a082015260c00190565b60408051808303601f19018152828252805160209182012061190160f01b828501527f000000000000000000000000000000000000000000000000000000000000000060228501526042808501829052835180860390910181526062909401909252825192019190912090915060006102d982878761057f565b90506001600160a01b0381166103315760405162461bcd60e51b815260206004820152601e60248201527f4e6f6469757352656c61793a20696e76616c6964207369676e6174757265000060448201526064016101d9565b6001600160a01b03811660009081526001602052604090205488146103985760405162461bcd60e51b815260206004820152601a60248201527f4e6f6469757352656c61793a20696e76616c6964206e6f6e636500000000000060448201526064016101d9565b6001600160a01b03811660009081526001602052604081208054916103bc8361080b565b91905055506000808d6001600160a01b03168d8d8d6040516103df9291906107e5565b60006040518083038185875af1925050503d806000811461041c576040519150601f19603f3d011682016040523d82523d6000602084013e610421565b606091505b5091509150816104735760405162461bcd60e51b815260206004820152601860248201527f4e6f6469757352656c61793a2063616c6c206661696c6564000000000000000060448201526064016101d9565b8d6001600160a01b0316836001600160a01b03167f71f3104341ecc0fb3e7a4353662c65d699aa6c00c87d04479f67d2a7261e90208f6040516104b891815260200190565b60405180910390a39d9c50505050505050505050505050565b6000546001600160a01b031633146105245760405162461bcd60e51b81526020600482015260166024820152752737b234bab9a932b630bc9d103737ba1037bbb732b960511b60448201526064016101d9565b600080546040516001600160a01b03808516939216917f8be0079c531659141344cd1fd0a4f28419497f9722a3daafe3b4186f6b6457e091a3600080546001600160a01b0319166001600160a01b0392909216919091179055565b6000604182146105df5760405162461bcd60e51b815260206004820152602560248201527f4e6f6469757352656c61793a20696e76616c6964207369676e6174757265206c6044820152640cadccee8d60db1b60648201526084016101d9565b82356020840135604085013560001a601b81101561060557610602601b82610824565b90505b60408051600081526020810180835289905260ff831691810191909152606081018490526080810183905260019060a0016020604051602081039080840390855afa158015610658573d6000803e3d6000fd5b5050604051601f19015198975050505050505050565b80356001600160a01b038116811461068557600080fd5b919050565b60008083601f84011261069c57600080fd5b50813567ffffffffffffffff8111156106b457600080fd5b6020830191508360208285010111156106cc57600080fd5b9250929050565b60008060008060008060008060c0898b0312156106ef57600080fd5b6106f88961066e565b975060208901359650604089013567ffffffffffffffff81111561071b57600080fd5b6107278b828c0161068a565b909750955050606089013593506080890135925060a089013567ffffffffffffffff81111561075557600080fd5b6107618b828c0161068a565b999c989b5096995094979396929594505050565b602081526000825180602084015260005b818110156107a35760208186018101516040868401015201610786565b506000604082850101526040601f19601f83011684010191505092915050565b6000602082840312156107d557600080fd5b6107de8261066e565b9392505050565b8183823760009101908152919050565b634e487b7160e01b600052601160045260246000fd5b60006001820161081d5761081d6107f5565b5060010190565b60ff818116838216019081111561083d5761083d6107f5565b9291505056fea26469706673582212207760132805867af1b1ccf398d5f71bd78a2fb2d235f0c048f31f5e78c09bd34264736f6c634300081c0033",
  "linkReferences": {},
  "deployedLinkReferences": {}
}